:020000040000fa
:080000000002040000000000f2
:020000040000fa
:04000800d80200001a
:020000040000fa
:04000c00d802000016
:020000040000fa
:04001000d802000012
:020000040000fa
:04001400d80200000e
:020000040000fa
:04001800d80200000a
:020000040000fa
:04001c00d802000006
:020000040000fa
:04002000d802000002
:020000040000fa
:04002400d8020000fe
:020000040000fa
:04002800d8020000fa
:020000040000fa
:04002c00d8020000f6
:020000040000fa
:04003000d8020000f2
:020000040000fa
:04003400d8020000ee
:020000040000fa
:04003800d8020000ea
:020000040000fa
:04003c00d8020000e6
:020000040000fa
:04004000d8020000e2
:020000040000fa
:04004400d8020000de
:020000040000fa
:04004800d8020000da
:020000040000fa
:04004c00d8020000d6
:020000040000fa
:04005000d8020000d2
:020000040000fa
:04005400d8020000ce
:020000040000fa
:04005800d8020000ca
:020000040000fa
:04005c00d8020000c6
:020000040000fa
:04006000d8020000c2
:020000040000fa
:04006400d8020000be
:020000040000fa
:04006800d8020000ba
:020000040000fa
:04006c00d8020000b6
:020000040000fa
:04007000d8020000b2
:020000040000fa
:04007400d8020000ae
:020000040000fa
:04007800d8020000aa
:020000040000fa
:04007c00d8020000a6
:020000040000fa
:04008000d8020000a2
:020000040000fa
:04008400d80200009e
:020000040000fa
:04008800d80200009a
:020000040000fa
:04008c00d802000096
:020000040000fa
:04009000d802000092
:020000040000fa
:04009400d80200008e
:020000040000fa
:04009800d80200008a
:020000040000fa
:04009c00d802000086
:020000040000fa
:0400a000d802000082
:020000040000fa
:0400a400d80200007e
:020000040000fa
:0400a800d80200007a
:020000040000fa
:0400ac00d802000076
:020000040000fa
:0400b000d802000072
:020000040000fa
:0400b400d80200006e
:020000040000fa
:0400b800d80200006a
:020000040000fa
:0400bc00d802000066
:020000040000fa
:0400c000d802000062
:020000040000fa
:0400c400d80200005e
:020000040000fa
:0400c800d80200005a
:020000040000fa
:0400cc00d802000056
:020000040000fa
:0400d000d802000052
:020000040000fa
:0400d400d80200004e
:020000040000fa
:0400d800d80200004a
:020000040000fa
:0400dc00d802000046
:020000040000fa
:0400e000d802000042
:020000040000fa
:0400e400d80200003e
:020000040000fa
:0400e800d80200003a
:020000040000fa
:0400ec00d802000036
:020000040000fa
:0400f000d802000032
:020000040000fa
:0400f400d80200002e
:020000040000fa
:0400f800d80200002a
:020000040000fa
:0400fc00d802000026
:020000040000fa
:04010000d802000021
:020000040000fa
:04010400d80200001d
:020000040000fa
:04010800d802000019
:020000040000fa
:04010c00d802000015
:020000040000fa
:04011000d802000011
:020000040000fa
:04011400d80200000d
:020000040000fa
:04011800d802000009
:020000040000fa
:04011c00d802000005
:020000040000fa
:04012000d802000001
:020000040000fa
:04012400d8020000fd
:020000040000fa
:04012800d8020000f9
:020000040000fa
:04012c00d8020000f5
:020000040000fa
:04013000d8020000f1
:020000040000fa
:04013400d8020000ed
:020000040000fa
:04013800d8020000e9
:020000040000fa
:04013c00d8020000e5
:020000040000fa
:04014000d8020000e1
:020000040000fa
:04014400d8020000dd
:020000040000fa
:04014800d8020000d9
:020000040000fa
:04020800d802000018
:020000040000fa
:04020c00d802000014
:020000040000fa
:04021000d802000010
:020000040000fa
:04021400d80200000c
:020000040000fa
:04021800d802000008
:020000040000fa
:04021c00d802000004
:020000040000fa
:04022000d802000000
:020000040000fa
:04022400d8020000fc
:020000040000fa
:04022800d8020000f8
:020000040000fa
:04022c00d8020000f4
:020000040000fa
:04023000d8020000f0
:020000040000fa
:04023400d8020000ec
:020000040000fa
:04023800d8020000e8
:020000040000fa
:04023c00d8020000e4
:020000040000fa
:04024000d8020000e0
:020000040000fa
:04024400d8020000dc
:020000040000fa
:04024800d8020000d8
:020000040000fa
:04024c00d8020000d4
:020000040000fa
:04025000d8020000d0
:020000040000fa
:04025400d8020000cc
:020000040000fa
:04025800d8020000c8
:020000040000fa
:04025c00d8020000c4
:020000040000fa
:04026000d8020000c0
:020000040000fa
:04026400d8020000bc
:020000040000fa
:04026800d8020000b8
:020000040000fa
:04026c00d8020000b4
:020000040000fa
:04027000d8020000b0
:020000040000fa
:04027400d8020000ac
:020000040000fa
:04027800d8020000a8
:020000040000fa
:04027c00d8020000a4
:020000040000fa
:04028000d8020000a0
:020000040000fa
:04028400d80200009c
:020000040000fa
:04028800d802000098
:020000040000fa
:04028c00d802000094
:020000040000fa
:04029000d802000090
:020000040000fa
:04029400d80200008c
:020000040000fa
:04029800d802000088
:020000040000fa
:04029c00d802000084
:020000040000fa
:0402a000d802000080
:020000040000fa
:0402a400d80200007c
:020000040000fa
:0402a800d802000078
:020000040000fa
:0402ac00d802000074
:020000040000fa
:0402b000d802000070
:020000040000fa
:0402b400d80200006c
:020000040000fa
:0402b800d802000068
:020000040000fa
:0402bc00d802000064
:020000040000fa
:0402c000d802000060
:020000040000fa
:0402c400d80200005c
:020000040000fa
:0402c800d802000058
:020000040000fa
:0402cc00d802000054
:020000040000fa
:0402d000d802000050
:020000040000fa
:0402d400d80200004c
:020000040000fa
:0402d800d802000048
:020000040000fa
:0402dc00d802000044
:020000040000fa
:0402e000d802000040
:020000040000fa
:0402e400d80200003c
:020000040000fa
:0402e800d802000038
:020000040000fa
:0402ec00d802000034
:020000040000fa
:0402f000d802000030
:020000040000fa
:0402f400d80200002c
:020000040000fa
:0402f800d802000028
:020000040000fa
:0402fc00d802000024
:020000040000fa
:04030000d80200001f
:020000040000fa
:04030400d80200001b
:020000040000fa
:04030800d802000017
:020000040000fa
:04030c00d802000013
:020000040000fa
:04031000d80200000f
:020000040000fa
:04031400d80200000b
:020000040000fa
:04031800d802000007
:020000040000fa
:04031c00d802000003
:020000040000fa
:04032000d8020000ff
:020000040000fa
:04032400d8020000fb
:020000040000fa
:04032800d8020000f7
:020000040000fa
:04032c00d8020000f3
:020000040000fa
:04033000d8020000ef
:020000040000fa
:04033400d8020000eb
:020000040000fa
:04033800d8020000e7
:020000040000fa
:04033c00d8020000e3
:020000040000fa
:04034000d8020000df
:020000040000fa
:04034400d8020000db
:020000040000fa
:04034800d8020000d7
:020000040000fa
:100400000f8020000e7f22000e01880000000000f7
:10041000000020000000e000020032000001200087
:10042000200288000e000700803520000100200017
:10043000810f700001003200220007000000200040
:100440000000e00002003200000002000000000096
:100450002a030200000000000040da000000fe0055
:100460004440a900000120000000e0000300320029
:1004700000002000a00188004440a8000000060001
:10048000f03fb1000180b10006003500ee03090025
:1004900000000000403fb1000180b100fbff3d00c3
:1004a0001000b000203fb0000200350000800900bd
:1004b00000000000000006008a1f78008b1f7800f3
:1004c0000000060091018800800478000000eb0025
:1004d0001a003700e284440032a0b4009905ba0043
:1004e000e284440032a0b4009906ba00e2844400d9
:1004f00032a0b4000006eb00476fde00fd07b2003b
:10050000636ce10003003a00ebff07000000eb0022
:100510000a003700606ce10004003a00005deb0067
:100520008b05e900fdff3e00040037006168e10033
:10053000010032000086eb000b00070019c7ba006b
:100540001905ba000e04e00003003a000a00e000ba
:10055000e0ff3a0000000600fe07b2009e0188009e
:100560008a047800f5ff3700395dba008b05e90091
:100570000c003200295dba008b05e900080032004a
:100580000c00e00003003a00e284440032a0b40012
:10059000f5ff370019ddba008b05e900faff3a00d4
:1005a0008904e800e184440032a0b40000000600a1
:0805b0000040da000000fe002b
:020000040000fa
:1005b8000101000002020000040400000808000015
:1005c8001010000020200000404000008080000043
:020000040000fa
:1005d8000000fa00113a8000f0ff28000080600057
:1005e80000c0a000103a8800113a8000f08f2f0058
:1005f800008060000080a000103a880042e7a80050
:1006080042c7a8004227a900213a8000f0ff28002d
:1006180000806000203a8800213a8000f08f2f0087
:1006280000806000203a88000080fa000000060080
:100638000000fa000080eb0060198800c822ef0073
:10064800cc22ef000080fa00000006000200fa0049
:100658000000eb00000f7800ddff0700f4ff070043
:10066800cc22ef000000eb00000f78000a003700f2
:100678001e00780080004000c02d28000080400047
:10068800100078006016880000402d00010320004b
:1006980079ff07001e0fe8001e007800e70f5000e2
:0806a800f3ff3600efff3700fd
:020000040000fa
:0406b0000000000046
:020000040000fa
:020000040001f9
:0457f800bf79000075
:020000040000fa
:020000040001f9
:0457fc003f3f00002b
:00000001FF
